{
  "_format": "hh-sol-artifact-1",
  "contractName": "DoctorAccess",
  "sourceName": "contracts/DoctorAccess.sol",
  "abi": [
    {
      "inputs": [
        {
          "internalType": "address",
          "name": "_patientContract",
          "type": "address"
        }
      ],
      "stateMutability": "nonpayable",
      "type": "constructor"
    },
    {
      "inputs": [],
      "name": "patientContract",
      "outputs": [
        {
          "internalType": "address",
          "name": "",
          "type": "address"
        }
      ],
      "stateMutability": "view",
      "type": "function"
    },
    {
      "inputs": [
        {
          "internalType": "address",
          "name": "patient",
          "type": "address"
        }
      ],
      "name": "viewPatient",
      "outputs": [
        {
          "internalType": "string",
          "name": "",
          "type": "string"
        },
        {
          "internalType": "string",
          "name": "",
          "type": "string"
        },
        {
          "internalType": "uint256",
          "name": "",
          "type": "uint256"
        }
      ],
      "stateMutability": "view",
      "type": "function"
    }
  ],
  "bytecode": "0x608060405234801561001057600080fd5b5060405161076c38038061076c833981810160405281019061003291906100db565b806000806101000a81548173ffffffffffffffffffffffffffffffffffffffff021916908373ffffffffffffffffffffffffffffffffffffffff16021790555050610108565b600080fd5b600073ffffffffffffffffffffffffffffffffffffffff82169050919050565b60006100a88261007d565b9050919050565b6100b88161009d565b81146100c357600080fd5b50565b6000815190506100d5816100af565b92915050565b6000602082840312156100f1576100f0610078565b5b60006100ff848285016100c6565b91505092915050565b610655806101176000396000f3fe608060405234801561001057600080fd5b50600436106100365760003560e01c80631ae738b81461003b578063f6e8e18f1461006d575b600080fd5b6100556004803603810190610050919061022d565b61008b565b60405161006493929190610303565b60405180910390f35b610075610197565b6040516100829190610357565b60405180910390f35b60608060008060008054906101000a900473ffffffffffffffffffffffffffffffffffffffff1673ffffffffffffffffffffffffffffffffffffffff1663a0076e84866040518263ffffffff1660e01b81526004016100ea9190610357565b600060405180830381865afa158015610107573d6000803e3d6000fd5b505050506040513d6000823e3d601f19601f82011682018060405250810190610130919061056a565b905060008160000151511161017a576040517f08c379a0000000000000000000000000000000000000000000000000000000008152600401610171906105ff565b60405180910390fd5b806000015181602001518260400151935093509350509193909250565b60008054906101000a900473ffffffffffffffffffffffffffffffffffffffff1681565b6000604051905090565b600080fd5b600080fd5b600073ffffffffffffffffffffffffffffffffffffffff82169050919050565b60006101fa826101cf565b9050919050565b61020a816101ef565b811461021557600080fd5b50565b60008135905061022781610201565b92915050565b600060208284031215610243576102426101c5565b5b600061025184828501610218565b91505092915050565b600081519050919050565b600082825260208201905092915050565b60005b83811015610294578082015181840152602081019050610279565b60008484015250505050565b6000601f19601f8301169050919050565b60006102bc8261025a565b6102c68185610265565b93506102d6818560208601610276565b6102df816102a0565b840191505092915050565b6000819050919050565b6102fd816102ea565b82525050565b6000606082019050818103600083015261031d81866102b1565b9050818103602083015261033181856102b1565b905061034060408301846102f4565b949350505050565b610351816101ef565b82525050565b600060208201905061036c6000830184610348565b92915050565b600080fd5b7f4e487b7100000000000000000000000000000000000000000000000000000000600052604160045260246000fd5b6103af826102a0565b810181811067ffffffffffffffff821117156103ce576103cd610377565b5b80604052505050565b60006103e16101bb565b90506103ed82826103a6565b919050565b600080fd5b600080fd5b600080fd5b600067ffffffffffffffff82111561041c5761041b610377565b5b610425826102a0565b9050602081019050919050565b600061044561044084610401565b6103d7565b905082815260208101848484011115610461576104606103fc565b5b61046c848285610276565b509392505050565b600082601f830112610489576104886103f7565b5b8151610499848260208601610432565b91505092915050565b6104ab816102ea565b81146104b657600080fd5b50565b6000815190506104c8816104a2565b92915050565b6000606082840312156104e4576104e3610372565b5b6104ee60606103d7565b9050600082015167ffffffffffffffff81111561050e5761050d6103f2565b5b61051a84828501610474565b600083015250602082015167ffffffffffffffff81111561053e5761053d6103f2565b5b61054a84828501610474565b602083015250604061055e848285016104b9565b60408301525092915050565b6000602082840312156105805761057f6101c5565b5b600082015167ffffffffffffffff81111561059e5761059d6101ca565b5b6105aa848285016104ce565b91505092915050565b7f4e6f206461746120666f756e6400000000000000000000000000000000000000600082015250565b60006105e9600d83610265565b91506105f4826105b3565b602082019050919050565b60006020820190508181036000830152610618816105dc565b905091905056fea26469706673582212203001f763405bf722be5f703518cdc2e29ac965c07d574ffb4bf190b05553c19664736f6c63430008120033",
  "linkReferences": {},
  "deployedLinkReferences": {}
}