{
  "_format": "hh-sol-artifact-1",
  "contractName": "PatientRecord",
  "sourceName": "contracts/PatientRecord.sol",
  "abi": [
    {
      "inputs": [
        {
          "internalType": "string",
          "name": "_name",
          "type": "string"
        },
        {
          "internalType": "string",
          "name": "_diagnosis",
          "type": "string"
        }
      ],
      "name": "addRecord",
      "outputs": [],
      "stateMutability": "nonpayable",
      "type": "function"
    },
    {
      "inputs": [
        {
          "internalType": "address",
          "name": "_addr",
          "type": "address"
        }
      ],
      "name": "getRecord",
      "outputs": [
        {
          "internalType": "string",
          "name": "",
          "type": "string"
        },
        {
          "internalType": "string",
          "name": "",
          "type": "string"
        },
        {
          "internalType": "uint256",
          "name": "",
          "type": "uint256"
        }
      ],
      "stateMutability": "view",
      "type": "function"
    }
  ],
  "bytecode": "0x608060405234801561001057600080fd5b50610a05806100206000396000f3fe608060405234801561001057600080fd5b50600436106100365760003560e01c8063617fba041461003b578063c95962481461006d575b600080fd5b610055600480360381019061005091906103bd565b610089565b60405161006493929190610493565b60405180910390f35b6100876004803603810190610082919061060d565b6102b5565b005b6060806000806000808673ffffffffffffffffffffffffffffffffffffffff1673ffffffffffffffffffffffffffffffffffffffff16815260200190815260200160002060000180546100db906106b4565b90501161011d576040517f08c379a000000000000000000000000000000000000000000000000000000000815260040161011490610731565b60405180910390fd5b60008060008673ffffffffffffffffffffffffffffffffffffffff1673ffffffffffffffffffffffffffffffffffffffff168152602001908152602001600020604051806060016040529081600082018054610178906106b4565b80601f01602080910402602001604051908101604052809291908181526020018280546101a4906106b4565b80156101f15780601f106101c6576101008083540402835291602001916101f1565b820191906000526020600020905b8154815290600101906020018083116101d457829003601f168201915b5050505050815260200160018201805461020a906106b4565b80601f0160208091040260200160405190810160405280929190818152602001828054610236906106b4565b80156102835780601f1061025857610100808354040283529160200191610283565b820191906000526020600020905b81548152906001019060200180831161026657829003601f168201915b505050505081526020016002820154815250509050806000015181602001518260400151935093509350509193909250565b6040518060600160405280838152602001828152602001428152506000803373ffffffffffffffffffffffffffffffffffffffff1673ffffffffffffffffffffffffffffffffffffffff168152602001908152602001600020600082015181600001908161032391906108fd565b50602082015181600101908161033991906108fd565b50604082015181600201559050505050565b6000604051905090565b600080fd5b600080fd5b600073ffffffffffffffffffffffffffffffffffffffff82169050919050565b600061038a8261035f565b9050919050565b61039a8161037f565b81146103a557600080fd5b50565b6000813590506103b781610391565b92915050565b6000602082840312156103d3576103d2610355565b5b60006103e1848285016103a8565b91505092915050565b600081519050919050565b600082825260208201905092915050565b60005b83811015610424578082015181840152602081019050610409565b60008484015250505050565b6000601f19601f8301169050919050565b600061044c826103ea565b61045681856103f5565b9350610466818560208601610406565b61046f81610430565b840191505092915050565b6000819050919050565b61048d8161047a565b82525050565b600060608201905081810360008301526104ad8186610441565b905081810360208301526104c18185610441565b90506104d06040830184610484565b949350505050565b600080fd5b600080fd5b7f4e487b7100000000000000000000000000000000000000000000000000000000600052604160045260246000fd5b61051a82610430565b810181811067ffffffffffffffff82111715610539576105386104e2565b5b80604052505050565b600061054c61034b565b90506105588282610511565b919050565b600067ffffffffffffffff821115610578576105776104e2565b5b61058182610430565b9050602081019050919050565b82818337600083830152505050565b60006105b06105ab8461055d565b610542565b9050828152602081018484840111156105cc576105cb6104dd565b5b6105d784828561058e565b509392505050565b600082601f8301126105f4576105f36104d8565b5b813561060484826020860161059d565b91505092915050565b6000806040838503121561062457610623610355565b5b600083013567ffffffffffffffff8111156106425761064161035a565b5b61064e858286016105df565b925050602083013567ffffffffffffffff81111561066f5761066e61035a565b5b61067b858286016105df565b9150509250929050565b7f4e487b7100000000000000000000000000000000000000000000000000000000600052602260045260246000fd5b600060028204905060018216806106cc57607f821691505b6020821081036106df576106de610685565b5b50919050565b7f4e6f207265636f726420666f756e640000000000000000000000000000000000600082015250565b600061071b600f836103f5565b9150610726826106e5565b602082019050919050565b6000602082019050818103600083015261074a8161070e565b9050919050565b60008190508160005260206000209050919050565b60006020601f8301049050919050565b600082821b905092915050565b6000600883026107b37fffffffffffffffffffffffffffffffffffffffffffffffffffffffffffffffff82610776565b6107bd8683610776565b95508019841693508086168417925050509392505050565b6000819050919050565b60006107fa6107f56107f08461047a565b6107d5565b61047a565b9050919050565b6000819050919050565b610814836107df565b61082861082082610801565b848454610783565b825550505050565b600090565b61083d610830565b61084881848461080b565b505050565b5b8181101561086c57610861600082610835565b60018101905061084e565b5050565b601f8211156108b15761088281610751565b61088b84610766565b8101602085101561089a578190505b6108ae6108a685610766565b83018261084d565b50505b505050565b600082821c905092915050565b60006108d4600019846008026108b6565b1980831691505092915050565b60006108ed83836108c3565b9150826002028217905092915050565b610906826103ea565b67ffffffffffffffff81111561091f5761091e6104e2565b5b61092982546106b4565b610934828285610870565b600060209050601f8311600181146109675760008415610955578287015190505b61095f85826108e1565b8655506109c7565b601f19841661097586610751565b60005b8281101561099d57848901518255600182019150602085019450602081019050610978565b868310156109ba57848901516109b6601f8916826108c3565b8355505b6001600288020188555050505b50505050505056fea2646970667358221220d68139d800440ce1da103d93ce1e876c80edb6cce9fb51c06ce83d065b218b0f64736f6c63430008120033",
  "linkReferences": {},
  "deployedLinkReferences": {}
}